:100000000C945D000C9485000C9485000C94850084
:100010000C9485000C9485000C9485000C9485004C
:100020000C9485000C9485000C9485000C9485003C
:100030000C9485000C9485000C9485000C9485002C
:100040000C940A060C9485000C94D8050C94B20507
:100050000C9485000C9485000C9485000C9485000C
:100060000C9454060C948500000000080002010066
:100070000003040700000000000000000000000072
:10008000250028002B0000000000240027002A0083
:10009000040404040404040402020202020203032E
:1000A0000303030301020408102040800102040836
:1000B0001020010204081020820711241FBECFEF78
:1000C000D8E0DEBFCDBF23E0A2E0B2E001C01D92C8
:1000D000AD36B207E1F712E0A0E0B1E0E6E0F3E10F
:1000E00002C005900D92A230B107D9F710E0CDE51E
:1000F000D0E004C02197FE010E947609CC35D107DB
:10010000C9F70E94BB070C9481090C940000382F9A
:100110002091C3029091C202213208F049C080911F
:100120009F028111FCCF42E040939F0230939E02D8
:100130003FEF30939D0210929C0220939B02A2EA13
:10014000B2E04BE752E0FA013E2F341B321718F4AD
:100150003D913193F9CF10927A0220917A02990F52
:10016000922B90937A0290917902913061F41092DF
:10017000790290917A029093BB009091BC0093FD1C
:10018000F8CF95EC01C095EE9093BC0090919F0242
:100190009230E1F390919D029F3F79F080919D0212
:1001A000803241F080919D02803331F084E005C0BF
:1001B00081E003C082E001C083E01092A1021092AE
:1001C000C3021092A00208958091570290E02091FE
:1001D0005802821B910908952FB7F8948091530219
:1001E00090915402A0915502B09156022FBF809376
:1001F000CC029093CD02A093CE02B093CF02E091B7
:10020000C402F091C5020484F585E02D84EC92E0EF
:10021000099597FF26C02FB7F894809153029091CB
:100220005402A0915502B09156022FBF4091CC02CA
:100230005091CD026091CE027091CF02841B950B3C
:10024000A60BB70B4091C8025091C9026091CA0237
:100250007091CB0284179507A607B70780F28FEF3E
:100260009FEF0895FF920F931F93CF93DF9300D0DA
:1002700000D0CDB7DEB70E94EC00FC0197FD11C0A5
:100280008D32910591F0C0970A9778F0E091C40201
:10029000F091C5020284F385E02D84EC92E009958B
:1002A000EACF60E070E0CB014CC020E030E0A90173
:1002B000F12CE130F105F1F0ED32F105C9F0CF019B
:1002C000C0970A97B8F4AAE0B0E00E943A098F01FB
:1002D000FF0F220B330BDC01CB01800F911FA21FFC
:1002E000B31F9C01AD01205331094109510902C0DE
:1002F000FF24F394E091C402F091C5020284F385D7
:10030000E02D84EC92E029833A834B835C8309954A
:100310000E94EC00FC01C09729813A814B815C81ED
:100320000A9738F2E130F10521F2FF2041F066270B
:100330007727CB01621B730B840B950B02C0CA019C
:10034000B9010F900F900F900F90DF91CF911F91F7
:100350000F91FF90089590E0FC01EC55FF4F249120
:10036000FC01E057FF4F8491882399F090E0880FBB
:10037000991FFC01EA57FF4FA591B491FC01E45885
:10038000FF4F859194918FB7F894EC91E22BEC9309
:100390008FBF0895CF92DF92EF92FF920F931F933A
:1003A000CF93DF936C017A018B01C0E0D0E0CE15D2
:1003B000DF0589F0D8016D918D01D601ED91FC9199
:1003C0000190F081E02DC6010995892B11F47E0181
:1003D00002C02196ECCFC701DF91CF911F910F9101
:1003E000FF90EF90DF90CF900895FC01538D448DE6
:1003F000252F30E0842F90E0821B930B541710F0D0
:10040000CF96089501970895FC01918D828D9817DC
:1004100061F0828DDF01A80FB11D5D968C91928DE8
:100420009F5F9F73928F90E008958FEF9FEF0895E5
:10043000FC01918D828D981731F0828DE80FF11DAE
:10044000858D90E008958FEF9FEF0895FC01918DC9
:10045000228D892F90E0805C9F4F821B91098F73C2
:100460009927089584EC92E00E94260221E0892BCE
:1004700009F420E0822F0895FC01848DDF01A80F8C
:10048000B11DA35ABF4F2C91848D90E001968F73BC
:100490009927848FA689B7892C93A089B1898C91DB
:1004A00080648C93938D848D981306C00288F389A1
:1004B000E02D80818F7D80830895EF92FF920F93CE
:1004C0001F93CF93DF93EC0181E0888F9B8D8C8D00
:1004D000981305C0E889F989808185FD24C0F62E2E
:1004E0000B8D10E00F5F1F4F0F731127E02E8C8DC7
:1004F000E8120CC00FB607FCFACFE889F9898081B1
:1005000085FFF5CFCE010E943C02F1CF8B8DFE011D
:10051000E80FF11DE35AFF4FF0820B8FEA89FB8948
:100520008081806207C0EE89FF896083E889F9894C
:1005300080818064808381E090E0DF91CF911F9182
:100540000F91FF90EF900895CF93DF93EC01888D8A
:100550008823C9F0EA89FB89808185FD05C0A889C7
:10056000B9898C9186FD0FC00FB607FCF5CF80814D
:1005700085FFF2CFA889B9898C9185FFEDCFCE0197
:100580000E943C02E7CFDF91CF91089580E090E098
:10059000892B29F00E94320281110C9400000895E9
:1005A00090E0FC01E859FF4F3491FC01EC55FF4FFE
:1005B0002491FC01E057FF4FE491EE2309F43BC086
:1005C000332339F1333091F038F43130A9F032303F
:1005D00001F584B58F7D12C0373091F03830A1F02D
:1005E0003430B9F4809180008F7D03C08091800009
:1005F0008F77809380000DC084B58F7784BD09C04C
:100600008091B0008F7703C08091B0008F7D809380
:10061000B000F0E0EE0FFF1FE458FF4FA591B4913A
:100620008FB7F894EC91611103C020952E2301C07F
:100630002E2B2C938FBF08953FB7F89480914A02D8
:1006400090914B02A0914C02B0914D0226B5A89B0F
:1006500005C02F3F19F00196A11DB11D3FBFBA2F54
:10066000A92F982F8827820F911DA11DB11DBC01B4
:10067000CD0142E0660F771F881F991F4A95D1F779
:10068000089585ED8093BC008091BC0084FDFCCF73
:1006900010929F02089540912402262F30E0240FEB
:1006A000311D21323105DCF420919F022430C9F440
:1006B000FC0180E090E0861758F4309124022191EB
:1006C000DC01AE5FBD4FA30FB11D2C930196F3CF9C
:1006D00080912402680F6093240280E0089581E0F5
:1006E000089582E008950895E0915802809157029C
:1006F000E81730F4F0E0E75AFD4F808190E008956C
:100700008FEF9FEF089590915802809157029817AC
:1007100050F4E92FF0E0E75AFD4F208130E09F5F71
:100720009093580202C02FEF3FEFC9010895CF9276
:10073000DF92EF92FF920F931F93CF93DF937C0191
:10074000262F972F8A018091A002882391F0C62F2F
:10075000D72F6E01C40ED51ECC15DD0571F0699141
:10076000D701ED91FC910190F081E02DC701099531
:10077000F3CF642F822F0E944B03C801DF91CF91EA
:100780001F910F91FF90EF90DF90CF900895CF933E
:10079000DF931F92CDB7DEB769832091A002222399
:1007A000D1F02091C302203240F021E030E0FC0182
:1007B0003383228380E090E015C08091A102E82F6E
:1007C000F0E0EE55FD4F998190838F5F8093A102F9
:1007D0008093C30205C061E0CE0101960E944B03E5
:1007E00081E090E00F90DF91CF910895682F81E62E
:1007F00093E00C94C703089580E090E0089500977B
:1008000069F0FC0101900020E9F73197AF01481B26
:10081000590BBC0184EC92E00C94CA0180E090E09A
:100820000895CF93DF930E94FF03EC0184E291E0EF
:100830000E94FF038C0F9D1FDF91CF910895CF92EF
:10084000DF92EF92FF92CF93DF931F92CDB7DEB787
:1008500091E09093A00292E69093C2021092A102BE
:100860001092C302082E000C990B69830E94F603B4
:100870006981862F660F990B0E94F60381E00E9422
:100880008700882321F087E291E00E9411040E94F2
:100890001C036B017C010E941C03DC01CB018C1941
:1008A0009D09AE09BF09883E9340A105B10598F3A3
:1008B0000F90DF91CF91FF90EF90DF90CF90089550
:1008C00090919F029111FCCF613208F060E291E0BB
:1008D00090939F0290939E022FEF20939D0210927F
:1008E0009C02260F20939B0290937A0290917A02A9
:1008F000880F892B80937A0280917902813061F48C
:100900001092790280917A028093BB008091BC00A2
:1009100083FDF8CF85EC01C085EE8093BC0080910B
:100920009F028130E1F380919C02861710F4609160
:100930009C02ABE7B2E029E532E0F9018E2F821B81
:10094000861718F48D918193F9CF10925802609315
:100950005702862F0895EF92FF920F931F93CF9324
:10096000DF938C01C0E1D7E2FF24F39482E6E82E06
:10097000F092A002E092C2021092A1021092C30271
:1009800081E090E00E94F60381E00E9487008823C6
:1009900021F087E291E00E94110461E070E082E6BC
:1009A00090E00E94600481E693E00E9483038170DE
:1009B00099272197B1F1892BD9F681E08093A00284
:1009C00082E68093C2021092A1021092C3028FE8C5
:1009D0009FEF0E94F60381E00E948700882321F0A8
:1009E00087E291E00E94110462E070E082E690E00C
:1009F0000E9460042091570230E080915802281B29
:100A0000310922303105BCF081E693E00E94830376
:100A1000F801808381E693E00E948303F8018183DB
:100A20000AC08EE291E0DF91CF911F910F91FF906C
:100A3000EF900C941104DF91CF911F910F91FF90D3
:100A4000EF9008958F929F92AF92BF92CF92DF92D4
:100A5000EF92FF920F931F93CF93DF93CDB7DEB743
:100A6000A1970FB6F894DEBF0FBECDBF6C01990FF2
:100A7000EE08FF08F7FE31C0E091C402F091C50214
:100A80000190F081E02D6DE284EC92E009958C01FB
:100A900022273327A9012C193D094E095F0919A204
:100AA000CE0181967C019AE0892E912CA12CB12C4B
:100AB000CA01B901A50194010E945409605DF701C2
:100AC00062937F01211531054105510589F7CF0159
:100AD0000E94FF03080F191F1EC0A701960119A24B
:100AE0008E010F5D1F4F8AE0C82ED12CE12CF12C16
:100AF000CA01B901A70196010E945409605DF8017D
:100B000062938F01211531054105510589F7CF0108
:100B10000E94FF038C0184E291E00E94FF03800F9A
:100B2000911FA1960FB6F894DEBF0FBECDBFDF9127
:100B3000CF911F910F91FF90EF90DF90CF90BF90DA
:100B4000AF909F908F90089560E882E00E941F040C
:100B500068E084E00E941F0460E08CE10C941F04B4
:100B60000E947C091F920F920FB60F9211242F93AF
:100B70003F934F935F936F937F938F939F93AF9325
:100B8000BF93EF93FF9384EC92E00E943C02FF91AD
:100B9000EF91BF91AF919F918F917F916F915F91F5
:100BA0004F913F912F910F900FBE0F901F9018956E
:100BB0001F920F920FB60F9211242F938F939F9332
:100BC000EF93FF93E091D402F091D5028081E09100
:100BD000DA02F091DB0282FD12C090818091DD0289
:100BE0008F5F8F732091DE02821751F0E091DD025A
:100BF000F0E0EC53FD4F958F8093DD0201C08081C2
:100C0000FF91EF919F918F912F910F900FBE0F90B9
:100C10001F9018951F920F920FB60F9211242F93C9
:100C20003F938F939F93AF93BF9380915302909183
:100C30005402A0915502B09156023091490223E02E
:100C4000230F2D3720F40196A11DB11D05C026E804
:100C5000230F0296A11DB11D2093490280935302D8
:100C600090935402A0935502B093560280914A0289
:100C700090914B02A0914C02B0914D020196A11DA2
:100C8000B11D80934A0290934B02A0934C02B09303
:100C90004D02BF91AF919F918F913F912F910F90F6
:100CA0000FBE0F901F9018951F920F920FB60F92C4
:100CB00011242F933F934F935F936F937F938F9361
:100CC0009F93AF93BF93EF93FF938091B900887F79
:100CD000803609F49CC068F5883209F45BC090F452
:100CE000803109F454C038F4882309F4F6C0883000
:100CF00009F44DC0F6C0883109F44CC0803209F4C3
:100D00005DC0EFC0803409F468C048F4803309F452
:100D100055C0883309F0E5C080939D02D8C0803566
:100D200009F44FC0883509F45DC0883409F0D9C092
:100D3000D6C0883909F4C7C0A8F4883709F467C059
:100D400038F4883609F463C0803709F460C0C9C03C
:100D5000883809F4B8C0803909F45FC0803809F0D8
:100D6000C0C05BC0803B09F486C038F4803A09F407
:100D700066C0883A09F47FC0B4C0803C09F4A7C0BB
:100D8000883C09F4A4C0883B09F48AC0AAC08091B9
:100D90007A0210C090919C0280919B02981770F586
:100DA000E0919C0281E08E0F80939C02F0E0E55878
:100DB000FD4F80818093BB0085EC86C080939D02AF
:100DC0008EC0E0919C0281E08E0F80939C02809106
:100DD000BB00F0E0E558FD4F808390919C0280912C
:100DE0009B026EC0E0919C0281E08E0F80939C027A
:100DF0008091BB00F0E0E558FD4F808380919E021A
:100E000081116DC081E08093790284EA61C083E042
:100E100080939F0210924802CFCF80914802803287
:100E200008F051C0E091480281E08E0F80934802A3
:100E30008091BB00F0E0E85DFD4F8083BDCF85EC85
:100E40008093BC0010929F0280914802803230F45F
:100E5000E0914802F0E0E85DFD4F108260914802A9
:100E600070E0E0912602F091270288E292E0099575
:100E70001092480236C084E080939F0210922502AF
:100E800010922402E0912202F091230209958091B0
:100E90002402811105C081E0809324021092020295
:100EA000E091250281E08E0F80932502F0E0EE5F55
:100EB000FD4F80818093BB00909125028091240298
:100EC000981708F479CF85E88093BC000AC085ECB8
:100ED0008093BC0010929F0204C010929D020E9459
:100EE0004103FF91EF91BF91AF919F918F917F91BE
:100EF0006F915F914F913F912F910F900FBE0F9087
:100F00001F901895E4ECF2E01382128288EE93E0D1
:100F1000A0E0B0E084839583A683B78324E031E02A
:100F20003183208325EC30E03587248724EC30E0C2
:100F30003787268720EC30E0318B208B21EC30E0A6
:100F4000338B228B22EC30E0358B248B26EC30E087
:100F5000378B268B118E128E138E148EE1E6F3E002
:100F60001382128284839583A683B78386E191E0FE
:100F7000918380830895CF93DF9300D0CDB7DEB700
:100F8000789484B5826084BD84B5816084BD85B564
:100F9000826085BD85B5816085BD80916E00816070
:100FA00080936E0010928100809181008260809316
:100FB0008100809181008160809381008091800018
:100FC0008160809380008091B10084608093B10043
:100FD0008091B00081608093B00080917A0084603D
:100FE00080937A0080917A00826080937A00809169
:100FF0007A00816080937A0080917A008068809383
:101000007A001092C100E091D402F091D50282E002
:101010008083E091D002F091D1021082E091D2025F
:10102000F091D3028FEC80831092DC02E091D80221
:10103000F091D90286E08083E091D602F091D70248
:10104000808180618083E091D602F091D702808117
:1010500088608083E091D602F091D7028081806819
:101060008083E091D602F091D70280818F7D8083CA
:101070008CE391E00E94110484E491E00E94110449
:1010800084E591E00E9411048FE591E00E94110433
:1010900082E791E00E94110486E891E00E94110429
:1010A0008FE591E00E94110482E791E00E94110413
:1010B0008FE891E00E94110480EA91E00E941104FF
:1010C00083EC91E00E941104109258021092570292
:1010D0001092A1021092C30210929F0281E08093AD
:1010E0009E021092790261E082E10E94D00261E0EA
:1010F00083E10E94D0028091B9008E7F8093B90075
:101100008091B9008D7F8093B90088E48093B80006
:1011100085E48093BC008CE08093B8000E94A40515
:101120000E94A40587E00E94AB0186E00E94AB010B
:1011300061E087E00E94D00261E086E00E94D00278
:101140009924939484EC92E00E94260218161906C2
:101150000CF08DC00E9432017B01CB010E94220560
:10116000809152028111EECFC7010A9783329140DC
:1011700098F490925202B12CA12C1BC00E151F05A1
:101180000CF456C0E016F1060CF05AC0AA2039F053
:1011900061E087E00E94D002109252025BC060E0E2
:1011A00086E00E94D002BB24B39481E0C81AD10823
:1011B00009F564E080E00E941F04CE0101960E94C0
:1011C000AB04898190E0982F88272A81820F911D96
:1011D00090934F0280934E020E9422050E9432019A
:1011E00070935102609350026E3C764599F143E64C
:1011F000C42ED12C63E080E00E941F04CE01019632
:101200000E94AB04098110E0102F00278A81080F8B
:10121000111D10934F0200934E02C8010A978332AA
:10122000914008F4ABCF61E087E00E94D0020FC08C
:10123000B110A8CF60E087E00E94D002AA24A39456
:101240000E151F050CF0B1CFBB2009F4AECF61E045
:1012500086E0A0CF80915002909151028E3C96453D
:1012600009F070CF83EF91E00E9411046BCF0E94D0
:10127000C60268CF0E944509A59F900DB49F900DAE
:10128000A49F800D911D11240895A29FB001B39FCA
:10129000C001A39F700D811D1124911DB29F700D7F
:1012A000811D1124911D0895A1E21A2EAA1BBB1BBA
:1012B000FD010DC0AA1FBB1FEE1FFF1FA217B30722
:1012C000E407F50720F0A21BB30BE40BF50B661F38
:1012D000771F881F991F1A9469F7609570958095FC
:1012E00090959B01AC01BD01CF010895EE0FFF1F4A
:1012F0000590F491E02D099481E090E0F8940C942D
:061300008109F894FFCF03
:10130600000000005D02CA01F501A40226020402E3
:10131600180200000000C7039703FC037303E400F0
:10132600830374030D0A003E206E61636B003E204A
:1013360072656164206661696C65640057656C63FB
:101346006F6D6500426F616420526174653A2039A1
:101356003630300054726F6C6C65792E2E2E00205C
:10136600204D696E20506F736974696F6E3A203133
:10137600300020204D617820506F736974696F6E5C
:101386003A203330300057696E63682E2E2E005394
:10139600657269616C204F7065726174696F6E0069
:1013A6004F4E4C59205448452054524F4C4C4559A9
:1013B60020495320574F524B494E4720534F204602
:1013C60041520053656E6420696E20696E746567CC
:1013D600657265722076616C7565206265747765E5
:1013E600656E20746865204D696E20616E64204DBF
:1013F600617800454D455247454E43595F53544F1A
:02140600500094
:00000001FF
